S0120000626F6F746C6F616465722E73726563E7
S113000070260020190100001501000015010000F0
S113001000000000000000000000000000000000DC
S113002000000000000000000000000015010000B6
S11300300000000000000000150100001501000090
S11300401501000015010000150100001501000054
S11300501501000015010000150100001501000044
S11300601501000015010000150100001501000034
S113007015010000150100001D0400001501000019
S11300801501000015010000150100001501000014
S11300901501000000000000000000001501000030
S11300A015010000150100001501000015010000F4
S11300B00000000010B5064C2378002B07D1054B37
S11300C0002B02D0044800E000BF0123237010BDC0
S11300D03004002000000000C80B0000084B10B5DD
S11300E0002B03D00749084800E000BF0748036815
S11300F0002B00D110BD064B002BFBD09847F9E72D
S11301000000000034040020C80B0000C80B0000ED
S113011000000000FEE7C04670B52E4B2E4A9A42FE
S113012003D02E4B2B4A9A4204D32D4B2D4A9A428C
S113013010D31EE02C4A294B03339B1A9B0801332E
S11301409B000022234824498C58845004329A424C
S1130150FAD1EAE7254A224B03339B1A9B08013361
S11301609B0000221F4800211418216004329A4287
S1130170FAD11F4AFF211F4B8B439360FD39902313
S11301805B001D4AD1501D48C3780324A3430222B7
S11301901343C370C3780C26B34308210B43C370C5
S11301A0174B987B3025A8430500202028439873DB
S11301B0987BB04301439973997BA1430A439A7393
S11301C0104A516880230B4353600F4B98470F4BE1
S11301D09847FEE700000020C80B00003004002010
S11301E06C060020300400200400002034040020A9
S11301F000ED00E0000000000070004100500041EC
S11302000048004100400041210A0000B103000001
S1130210494B4A4A9A82998A02220A439A821900CD
S11302200222CB681A42FCD00122454B1A701A00F4
S1130230012113780B4203D053785BB2002BF8DB17
S113024001223F4B9A601A0053785BB2002BFBDB10
S11302503C4A3B4B5A601A0053785BB2002BFBDBE1
S11302608222D201364B5A801A0053785BB2002B9B
S1130270FBDB314A938C80218B4393841100102241
S1130280CB681A42FCD0304A2B4BDA621900102298
S1130290CB681A42FCD0284A918C2C4B0B43938494
S11302A011001022CB681A42FCD0234A918C0223FD
S11302B00B43938480214020D3681942FCD0D36837
S11302C01842F9D01C491022CB681A42FCD00022F3
S11302D01B4B9A601A0053785BB2002BFBDB1C4A61
S11302E0174B5A601A0053785BB2002BFBDB124A9F
S11302F0116A184B0B40802149000B431362136AA7
S113030080398B4313620E4B03229A60124A5A605F
S11303101A0053785BB2002BFBDB104B00221A72DD
S11303205A729A72DA720E4A0E4B1A600E4A516869
S113033080230B4353607047000800400C06000004
S1130340000C004001050100B805FF7D040A00000F
S113035000070300FFFCFFFF030601000004004048
S1130360006CDC02000000200040004110B502488F
S1130370024B984710BDC0464C040020B90500004C
S1130380084B1B6ADB000BD5074B1B685A1C07D0B4
S113039080225201116881F3088804498A60184751
S11303A07047C046004400410410000000ED00E026
S11303B010B5114A114B1A6011494B681E22934320
S11303C01A00022313434B600E4A916908230B431E
S11303D093610D4B802252059A6006205C2158548B
S11303E09A610A4B98470A4B9847E1214902094808
S11303F00C30094B9847FEE740420F0000000020F4
S1130400004000410004004000440041810300001A
S1130410110200004C0400202D07000010B5024812
S11304200C30024B984710BD4C04002075080000A6
S113043030B587B00B4C20000C300B4B04930223D7
S11304400393013302931333019301330093163B57
S113045001220649064DA8472000064B984707B0DD
S113046030BDC0464C0400206D030000001C004257
S1130470E50600007904000007498B6802891B0C1B
S11304801B0413438B6003899B0883800023037040
S1130490837043707047C0460040004109020B4B13
S11304A0994212D90A480122037D1342FCD0084B19
S11304B0188B084A02401A834908D961064A1A80EF
S11304C0190001220B7D1342FCD17047FF0F00007D
S11304D000400041E0FEFFFF02A5FFFFF8B54F46D4
S11304E04646C0B480462B4C20002B4DA847000242
S11304F04346D8802000A8474346DF88384387B264
S1130500DF80BF01254B9F422DD9254901220B7D58
S11305101342FCD0224A118B224B0B40138300233D
S113052099461D4D042400261A48A8473043060264
S1130530013CE4B2002CF7D11B4930001B4B984717
S113054000291FD1300C38804B4604330237DAB20D
S113055091461B06E6D5164A114B1A801900012252
S11305600B7D1342FCD14346DA885B89013B9A42F6
S113057003D1552107480F4B9847552105480D4B8A
S1130580984703E0112103480A4B98470CBC904656
S11305909946F8BD58040020AD080000FF0F000084
S11305A000400041E0FEFFFFF27D0000150A00005C
S11305B004A5FFFFD1080000F8B504000378002B60
S11305C03BD0BB2B1FD0EE2B03D0AA2B00D07BE05B
S11305D01CE03E483E4B9847552810D1E188200046
S11305E03C4B9847E188090A384E30003A4DA847F9
S11305F0A1793000A847E3880133E38064E0002355
S11306002370E38060E0002303705DE08378002BB7
S113061008D02E48314B9847822855D12000304BC2
S1130620984751E029482A4B9847552802D101237D
S1130630A37049E00023237046E04378002B20D0C8
S11306402248264B984702283ED16378237000271E
S113065067701E4D28001E4EB047000260812800BE
S1130660B047638918436081217828001A4EB04747
S11306706189090A2800B047A17A2800B047E780B9
S113068022E01248124B98476070BB2802D0EE2833
S113069009D019E0BB23237000236370BB210B48EE
S11306A00D4B984710E0EE23237000276770074E28
S11306B0EE213000084DA847A188090A3000A84758
S11306C021793000A847E780F8BDC04658040020CF
S11306D0AD0800009D040000D108000019080000C6
S11306E0DD040000F0B505AC277806AC267807AC2D
S11306F0257808AC24780160027143718771C67152
S1130700057244720023064A8354064A8354013214
S11307108354054A835484239B00099AC250F0BD34
S11307200A0200000B0200000D02000010B541791E
S11307308279103A01231C009440C279103A934004
S113074023432C4A13430279023212061343CA018B
S113075029498C4662449362284A116A80230B43D8
S11307601362274A8023DB011360C3218900545894
S1130770244B2340C024240423435350224A234BB4
S11307805A801A0053785BB2002BFBDB0268D369F2
S11307909B07FCD4136802218B4313600268116821
S11307A001230B43136002681368DB07FCD4D3698D
S11307B0DB07F9D406239375154B0268938101680E
S11307C0037A1B05C02292031340124A1343427A50
S11307D0D203C024A402224013430B6003685C606C
S11307E00268116802230B4313600268D3699B07F4
S11307F0FCD410BD000001D00044004100040040BE
S113080000E100E0FFFF00FF19400000000C004081
S11308102BF6FFFF04000040054BC35C054A805CD7
S1130820834202D21B1AD8B201E01B1AD8B2704715
S11308300B0200000A02000010B583239B00C15C78
S11308400B4BC35C8B420DD00268137EDB07FCD5D7
S11308504C1C83239B00C45441180B31FF310B788B
S1130860138504E00268117E02230B43137610BD46
S11308700D02000010B503681A7E52070BD5094912
S1130880425C541C44541B8D8218937284239B0035
S1130890C358984704E01B7E9B0701D5024B984739
S11308A010BDC0460B02000039080000064BC35CB3
S11308B0064A825C9A4205D0591C034A8154C318E3
S11308C0987A00E0002070470A0200000B02000042
S11308D010B50B4BC35CC2180B32FF32117083226C
S11308E09200825C9A4205D10133054A8354054B38
S11308F0984702E00133024A8354012010BDC046E8
S11309000D02000039080000002243088B4274D312
S113091003098B425FD3030A8B4244D3030B8B42FC
S113092028D3030C8B420DD3FF22090212BA030C05
S11309308B4202D31212090265D0030B8B4219D3E6
S113094000E0090AC30B8B4201D3CB03C01A524106
S1130950830B8B4201D38B03C01A5241430B8B424E
S113096001D34B03C01A5241030B8B4201D30B0337
S1130970C01A5241C30A8B4201D3CB02C01A52415E
S1130980830A8B4201D38B02C01A5241430A8B4221
S113099001D34B02C01A5241030A8B4201D30B020A
S11309A0C01A5241CDD2C3098B4201D3CB01C01A24
S11309B0524183098B4201D38B01C01A524143092E
S11309C08B4201D34B01C01A524103098B4201D31C
S11309D00B01C01A5241C3088B4201D3CB00C01A89
S11309E0524183088B4201D38B00C01A5241430801
S11309F08B4201D34B00C01A5241411A00D2014626
S1130A00524110467047FFE701B5002000F006F898
S1130A1002BDC0460029F7D076E770477047C0464C
S1130A2070B50D4E0D4D0024AD1BAD1005D0A300C7
S1130A30F35801349847A542F9D100F0B1F8084EB3
S1130A40084D0024AD1BAD1005D0A300F3580134AC
S1130A509847A542F9D170BDAC0B0000AC0B000067
S1130A60AC0B0000B80B0000034B10B5002B02D0F8
S1130A70024800F005F810BD00000000910A0000D3
S1130A8010B5010000230022002000F01BF810BD67
S1130A9070B5094B094CE41AA41009D0084AA518EA
S1130AA0AD00ED182B68013C9847043D002CF9D1AA
S1130AB000F082F870BDC046C40B0000C80B0000F3
S1130AC0FFFFFF3FF8B544465F4656464D469B46FA
S1130AD02F4BF0B41C68A4235B000500E0580E0003
S1130AE0904600284BD043681F2B0DDC5C1C002D66
S1130AF021D102339B0044601E5000203CBC904630
S1130B009946A246AB46F8BD224B002B3CD0C820E8
S1130B10400000E000BF002836D0A4220023520089
S1130B20A15843600160A050403283500432835086
S1130B300124002DDDD09A0091468144424688214B
S1130B404F467A50C4225200904680444246873928
S1130B50994012688A460A439446424661461160A7
S1130B60842249465F4652008F50022DC1D10200B3
S1130B7055468D32FF3211680D431560B9E72000E8
S1130B804D30FF30E050AEE701204042B6E7C046AA
S1130B909C0B00000000000043000000080000203F
S1130BA0F8B5C046F8BC08BC9E467047690A000008
S1130BB0DD00000031040000F8B5C046F8BC08BCF4
S10B0BC09E467047B5000000D9
S1130BC840420F000000000000000000F402002072
S1130BD85C030020C40300200000000000000000A3
S1130BE800000000000000000000000000000000F9
S1130BF8000000000000000000000000980B000046
S1130C0800000000000000000000000000000000D8
S1130C1800000000000000000000000000000000C8
S1130C2800000000000000000000000000000000B8
S1130C3800000000000000000000000000000000A8
S1130C480000000000000000000000000000000098
S1130C580000000000000000000000000000000088
S1130C680000000000000000000000000000000078
S1130C7801000000000000000E33CDAB34126DE615
S1130C88ECDE05000B00000000000000000000007E
S1130C980000000000000000000000000000000048
S1130CA80000000000000000000000000000000038
S1130CB80000000000000000000000000000000028
S1130CC80000000000000000000000000000000018
S9030000FC
